:020000040800F2
:1000000000000120190C0008210B0008270B000834
:100010002D0B0008330B0008390B0008000000000E
:100020000000000000000000000000003F0B00087E
:100030004D0B0008000000005B0B0008690B000876
:10004000690C0008690C0008690C0008690C0008BC
:10005000690C0008690C0008690C0008690C0008AC
:10006000690C0008690C0008690C0008690C00089C
:10007000690C0008690C0008690C0008690C00088C
:10008000690C0008690C0008690C000800000000F9
:10009000000000000000000000000000690C0008E3
:1000A000690C0008750B0008690C0008690C000851
:1000B000690C0008690C0008690C0008690C00084C
:1000C000690C0008690C0008690C0008690C00083C
:1000D000690C0008690C0008690C000800000000A9
:1000E000690C0008690C0008690C00080000000099
:1000F000000000000000000000000000690C000883
:1001000000000000690C0008690C0008690C000878
:1001100000000000000000000000000000000000DF
:10012000690C0008690C0008690C0008690C0008DB
:10013000690C000800000000000000000000000042
:10014000000000000000000000000000690C000832
:10015000690C0008690C0008690C0008690C0008AB
:10016000690C0008690C0008000000000000000095
:10017000000000000000000000000000000000007F
:1001800000000000690C00080000000000000000F2
:04019000690C0008EE
:1001940010B5054C237833B9044B13B10448AFF3BD
:1001A40000800123237010BD0C000020000000001B
:1001B400C823000808B5034B1BB103490348AFF338
:1001C400008008BD0000000010000020C8230008C3
:1001D40053B94AB9002908BF00281CBF4FF0FF31AA
:1001E4004FF0FF3000F06EB9ADF1080C6DE904CEAC
:1001F40000F006F8DDF804E0DDE9022304B07047FE
:100204002DE9F047089D04468C46002B40F083807E
:100214008A42174647D9B2FA82F242B1C2F12000AB
:1002240024FA00F09140974040EA010C94404FEAD0
:100234001748230CBCFBF8F61FFA87FE08FB16C10F
:1002440043EA014306FB0EF1994209D9FB1806F172
:10025400FF3080F01981994240F21681023E3B44FE
:100264005B1AA4B2B3FBF8F008FB103344EA03446E
:1002740000FB0EFEA64509D93C1900F1FF3380F0BE
:100284000581A64540F2028102383C4440EA06401A
:10029400A4EB0E0400261DB1D4400023C5E900439D
:1002A4003146BDE8F08702B9FFDEB2FA82F2002AD5
:1002B40050D1CB1B4FEA174E1FFA87F80126B3FB28
:1002C400FEFC210C0EFB1C3341EA034108FB0CF33A
:1002D4008B4207D979180CF1FF3002D28B4200F21D
:1002E400E9808446C91AA3B2B1FBFEF00EFB1011DB
:1002F40043EA014408FB00F8A04507D93C1900F182
:10030400FF3302D2A04500F2D9801846A4EB0804BA
:1003140040EA0C40BFE78B4209D9002D00F0B180C0
:100324000026C5E9000130463146BDE8F087B3FA3E
:1003340083F6002E4AD18B4202D3824200F2B88067
:10034400841A61EB030101208C46002DA8D0C5E975
:10035400004CA5E7C2F1200320FA03F6974001FA06
:1003640002F04FEA174ED9403043030CB1FBFEF6BE
:100374001FFA87F80EFB161143EA014306FB08F146
:10038400994204FA02F409D9FB1806F1FF3C80F003
:100394008D80994240F28A80023E3B445B1A81B2CE
:1003A400B3FBFEF00EFB103341EA034100FB08F3FC
:1003B4008B4207D9791800F1FF3C73D28B4271D973
:1003C40002383944CB1A40EA064678E7C6F1200CD5
:1003D40003FA06F422FA0CF31C4320FA0CF701FA90
:1003E40006F34FEA144E21FA0CF11F433B0CB1FB08
:1003F400FEF91FFA84F80EFB191143EA014109FBC7
:1004040008FA8A4502FA06F200FA06F308D96118D6
:1004140009F1FF3048D28A4546D9A9F1020921449D
:10042400A1EB0A01BFB2B1FBFEF00EFB101147EACB
:10043400014700FB08F8B84507D9E71900F1FF3177
:100444002ED2B8452CD90238274440EA0940A7EBFC
:100454000807A0FB02894F45C64649461AD317D060
:100464005DB1B3EB0E0267EB010707FA0CFCF24037
:100474004CEA0202F740C5E9002700263146BDE8F0
:10048400F0872E4628460BE70646E9E61846FDE6C1
:100494004345E5D2B8EB020E69EB04010138DFE70E
:1004A4000846D2E760468DE78146B9E7664675E7B8
:1004B40030464AE7ACF1020C394413E702383C44B5
:1004C40024E700BF704700BF80B582B000AF034689
:1004D400FB7100220121714800F0CEFE00220221AE
:1004E4006E4800F0C9FE002204216C4800F0C4FEEE
:1004F40000220821694800F0BFFEFB79012B04D1DA
:1005040001220121654800F0B7FEFB79022B04D1DA
:1005140001220221614800F0AFFEFB79032B09D1CF
:10052400012201215D4800F0A7FE012202215B485F
:1005340000F0A2FEFB79042B04D1012204215748C8
:1005440000F09AFEFB79052B09D1012201215348C1
:1005540000F092FE01220421504800F08DFEFB7948
:10056400062B09D1012202214C4800F085FE01220C
:1005740004214A4800F080FEFB79072B0ED10122AA
:100584000121464800F078FE01220221434800F090
:1005940073FE01220421414800F06EFEFB79082B12
:1005A40004D1012208213D4800F066FEFB79092BA5
:1005B40009D101220121394800F05EFE01220821FF
:1005C400364800F059FEFB790A2B09D10122022199
:1005D400324800F051FE01220821304800F04CFE60
:1005E400FB790B2B0ED1012201212C4800F044FE93
:1005F40001220221294800F03FFE01220821274858
:1006040000F03AFEFB790C2B09D101220421234886
:1006140000F032FE01220821204800F02DFEFB7973
:100624000D2B0ED1012201211C4800F025FE0122D0
:1006340004211A4800F020FE01220821174800F086
:100644001BFEFB790E2B0ED101220221134800F070
:1006540013FE01220421114800F00EFE012208219C
:100664000E4800F009FEFB790F2B13D10122012162
:100674000A4800F001FE01220221084800F0FCFDB6
:1006840001220421054800F0F7FD01220821034856
:1006940000F0F2FD00BF0837BD4680BD00000240F7
:1006A40080B582B000AF0346FB710022102171486F
:1006B40000F0E2FD002220216E4800F0DDFD002262
:1006C40040216C4800F0D8FD00228021694800F0E8
:1006D400D3FDFB79012B04D101221021654800F0E0
:1006E400CBFDFB79022B04D101222021614800F0CB
:1006F400C3FDFB79032B09D1012210215D4800F0D1
:10070400BBFD012220215B4800F0B6FDFB79042BE0
:1007140004D101224021574800F0AEFDFB79052B9E
:1007240009D101221021534800F0A6FD01224021E5
:10073400504800F0A1FDFB79062B09D101222021AC
:100744004C4800F099FD012240214A4800F094FDF4
:10075400FB79072B0ED101221021464800F08CFDB5
:1007640001222021434800F087FD01224021414815
:1007740000F082FDFB79082B04D1012280213D4841
:1007840000F07AFDFB79092B09D1012210213948A7
:1007940000F072FD01228021364800F06DFDFB79E6
:1007A4000A2B09D101222021324800F065FD0122E3
:1007B4008021304800F060FDFB790B2B0ED1012223
:1007C40010212C4800F058FD01222021294800F076
:1007D40053FD01228021274800F04EFDFB790C2BAC
:1007E40009D101224021234800F046FD0122802145
:1007F400204800F041FDFB790D2B0ED10122102180
:100804001C4800F039FD012240211A4800F034FD53
:1008140001228021174800F02FFDFB790E2B0ED109
:1008240001222021134800F027FD01224021114814
:1008340000F022FD012280210E4800F01DFDFB790D
:100844000F2B13D1012210210A4800F015FD0122BB
:100854002021084800F010FD01224021054800F045
:100864000BFD01228021034800F006FD00BF08377C
:10087400BD4680BD0000024080B500AF00F0F4F931
:1008840000F00AF800F0C2F800F070F8014801F036
:1008940071F9FEE72C00002080B594B000AF07F199
:1008A400200330220021184601F084FD07F10C03D7
:1008B40000221A605A609A60DA601A610023BB60F1
:1008C400284B1B6C274A43F080531364254B1B6C45
:1008D40003F08053BB60BB6800237B60224B1B6822
:1008E40023F44043204A43F4004313601E4B1B6827
:1008F40003F440437B607B6802233B620123FB6279
:1009040010233B630223BB630023FB6308233B6484
:1009140054237B640223BB640423FB6407F1200398
:10092400184600F0C3FC0346002B01D000F0A0F8E9
:100934000F23FB6002233B6100237B614FF4805350
:10094400BB610023FB6107F10C030221184600F090
:1009540025FF0346002B01D000F08AF800BF503772
:10096400BD4680BD003802400070004080B586B0AE
:1009740000AF07F1080300221A605A609A60DA6037
:100984003B4600221A605A601E4B1F4A1A601D4BD8
:100994004AF210425A601B4B00229A60194B0A22F9
:1009A400DA60184B00221A61164B00225A61154B6B
:1009B40000229A61134801F08DF80346002B01D000
:1009C40000F056F84FF48053BB6007F10803194652
:1009D4000C4801F039FA0346002B01D000F048F826
:1009E40020233B6000237B603B461946054801F009
:1009F4003BFC0346002B01D000F03AF800BF183747
:100A0400BD4680BD2C0000200000014080B586B0AA
:100A140000AF3B1D00221A605A609A60DA601A61C6
:100A240000233B60104B1B6B0F4A43F0010313631D
:100A34000D4B1B6B03F001033B603B680022FF215D
:100A44000A4800F019FCFF237B600123BB600023EC
:100A5400FB6000233B613B1D1946044800F088FA03
:100A640000BF1837BD4680BD003802400000024078
:100A740080B400AF72B600BFFEE7000080B483B05C
:100A840000AF00237B60104B5B6C0F4A43F4804340
:100A940053640D4B5B6C03F480437B607B680023E1
:100AA4003B60094B1B6C084A43F080531364064BAC
:100AB4001B6C03F080533B603B6800BF0C37BD46A2
:100AC4005DF8047B704700BF0038024080B584B0F5
:100AD40000AF78607B681B680E4A934215D10023EF
:100AE400FB600D4B5B6C0C4A43F0010353640A4BEF
:100AF4005B6C03F00103FB60FB68002200211920FA
:100B040000F0FFF9192000F018FA00BF1037BD46B5
:100B140080BD00BF000001400038024080B400AF37
:100B2400FEE780B400AFFEE780B400AFFEE780B418
:100B340000AFFEE780B400AFFEE780B400AF00BFB3
:100B4400BD465DF8047B704780B400AF00BFBD466E
:100B54005DF8047B704780B400AF00BFBD465DF80C
:100B6400047B704780B500AF00F0D0F800BF80BDB3
:100B740080B500AF194801F05FF8194B1B680133C9
:100B8400174A1360164B1B68322B02DD144B0022EC
:100B94001A60134B1968134B83FB01239A10CB176C
:100BA400D21A13469B0013445B00CA1A0E4B1A60F8
:100BB4000B4B1B680B4A82FB03129210DB17D31AF0
:100BC4000A4A1360084B1B681846FFF77DFC074B65
:100BD4001B681846FFF764FD00BF80BD2C00002091
:100BE40028000020676666667400002078000020F4
:100BF40080B400AF064BD3F88830054A43F4700341
:100C0400C2F8883000BFBD465DF8047B704700BF62
:100C140000ED00E0DFF834D00D480E490E4A002301
:100C240002E0D458C4500433C4188C42F9D30B4A9C
:100C34000B4C002301E013600432A242FBD3FFF704
:100C4400D7FF01F093FBFFF717FE70470000012068
:100C5400000000200C000020002400080C000020EC
:100C640080000020FEE7000080B500AF0E4B1B683B
:100C74000D4A43F4007313600B4B1B680A4A43F498
:100C840080631360084B1B68074A43F48073136046
:100C9400032000F02BF9002000F008F8FFF7EEFE27
:100CA4000023184680BD00BF003C024080B582B0DE
:100CB40000AF7860124B1A68124B1B7819464FF438
:100CC4007A73B3FBF1F3B2FBF3F3184600F043F984
:100CD4000346002B01D001230EE07B680F2B0AD8BA
:100CE400002279684FF0FF3000F00BF9064A7B6868
:100CF4001360002300E0012318460837BD4680BD79
:100D040000000020080000200400002080B400AF90
:100D1400064B1B781A46064B1B681344044A13609F
:100D240000BFBD465DF8047B704700BF080000208B
:100D34007C00002080B400AF034B1B681846BD46FE
:100D44005DF8047B704700BF7C00002080B485B050
:100D540000AF78607B6803F00703FB600C4BDB6833
:100D6400BB60BA684FF6FF031340BB60FB681A020E
:100D7400BB68134343F0BF6343F40033BB60044ACE
:100D8400BB68D36000BF1437BD465DF8047B704771
:100D940000ED00E080B400AF044BDB681B0A03F0F5
:100DA40007031846BD465DF8047B704700ED00E07C
:100DB40080B483B000AF0346FB7197F90730002B72
:100DC4000BDBFB7903F01F02074997F907305B0936
:100DD400012000FA02F241F8232000BF0C37BD467F
:100DE4005DF8047B704700BF00E100E080B483B08D
:100DF40000AF03463960FB7197F90730002B0ADB1B
:100E04003B68DAB20C4997F907301201D2B20B44AD
:100E140083F800230AE03B68DAB20849FB7903F05F
:100E24000F03043B1201D2B20B441A7600BF0C37F5
:100E3400BD465DF8047B704700E100E000ED00E092
:100E440080B489B000AFF860B9607A60FB6803F0E1
:100E54000703FB61FB69C3F10703042B28BF0423C9
:100E6400BB61FB690433062B02D9FB69033B00E039
:100E740000237B614FF0FF32BB6902FA03F3DA43CC
:100E8400BB681A407B699A404FF0FF317B6901FAD5
:100E940003F3D9437B680B40134318462437BD46FC
:100EA4005DF8047B7047000080B582B000AF7860C5
:100EB4007B68013BB3F1807F01D301230FE00A4A31
:100EC4007B68013B53600F214FF0FF30FFF78EFF2B
:100ED400054B00229A60044B07221A60002318462F
:100EE4000837BD4680BD00BF10E000E080B582B089
:100EF40000AF78607868FFF729FF00BF0837BD4668
:100F040080BD80B586B000AF0346B9607A60FB73DC
:100F140000237B61FFF73EFF78617A68B9687869DE
:100F2400FFF78EFF024697F90F3011461846FFF778
:100F34005DFF00BF1837BD4680BD80B582B000AFED
:100F44000346FB7197F907301846FFF731FF00BFDE
:100F54000837BD4680BD80B582B000AF7860786840
:100F6400FFF7A2FF034618460837BD4680BD0000C0
:100F740080B489B000AF7860396000237B610023BE
:100F84003B610023BB610023FB6159E10122FB6942
:100F940002FA03F37B613B681B687A6913403B6187
:100FA4003A697B699A4240F048813B685B6803F088
:100FB4000303012B05D03B685B6803F00303022B9A
:100FC40030D17B689B68BB61FB695B00032202FA3A
:100FD40003F3DB43BA691340BB613B68DA68FB691E
:100FE4005B0002FA03F3BA691343BB617B68BA6915
:100FF4009A607B685B68BB610122FB6902FA03F3B8
:10100400DB43BA691340BB613B685B681B0903F0AF
:101014000102FB6902FA03F3BA691343BB617B68FB
:10102400BA695A603B685B6803F00303032B17D06B
:101034007B68DB68BB61FB695B00032202FA03F394
:10104400DB43BA691340BB613B689A68FB695B0088
:1010540002FA03F3BA691343BB617B68BA69DA60C5
:101064003B685B6803F00303022B23D1FB69DA08B6
:101074007B68083253F82230BB61FB6903F0070335
:101084009B000F2202FA03F3DB43BA691340BB61EE
:101094003B681A69FB6903F007039B0002FA03F338
:1010A400BA691343BB61FB69DA087B680832B96922
:1010B40043F822107B681B68BB61FB695B00032259
:1010C40002FA03F3DB43BA691340BB613B685B6814
:1010D40003F00302FB695B0002FA03F3BA691343EA
:1010E400BB617B68BA691A603B685B6803F0805334
:1010F400002B00F0A2800023FB60574B5B6C564A28
:1011040043F480435364544B5B6C03F48043FB60AF
:10111400FB68524AFB699B08023352F82330BB61D7
:10112400FB6903F003039B000F2202FA03F3DB4382
:10113400BA691340BB617B68494A934219D07B6802
:10114400484A934213D07B68474A93420DD07B6848
:10115400464A934207D07B68454A934201D104230F
:1011640008E0072306E0032304E0022302E001234E
:1011740000E00023FA6902F0030292009340BA6986
:101184001343BB613549FB699B080233BA6941F8D3
:101194002320384B1B68BB613B69DB43BA691340AE
:1011A400BB613B685B6803F48033002B03D0BA69EE
:1011B4003B691343BB612F4ABB6913602D4B5B68CA
:1011C400BB613B69DB43BA691340BB613B685B6845
:1011D40003F40033002B03D0BA693B691343BB61AA
:1011E400244ABB695360234B9B68BB613B69DB4367
:1011F400BA691340BB613B685B6803F48013002B3E
:1012040003D0BA693B691343BB611A4ABB69936053
:10121400184BDB68BB613B69DB43BA691340BB61B4
:101224003B685B6803F40013002B03D0BA693B6985
:101234001343BB610F4ABB69D360FB690133FB6194
:10124400FB690F2B7FF6A2AE00BF00BF2437BD465B
:101254005DF8047B704700BF00380240003801404D
:10126400000002400004024000080240000C02405A
:1012740000100240003C014080B483B000AF7860AD
:101284000B467B8013467B707B78002B03D07A88D7
:101294007B689A6103E07B881A047B689A6100BFCB
:1012A4000C37BD465DF8047B7047000080B586B0FE
:1012B40000AF78607B68002B01D1012364E27B6876
:1012C4001B6803F00103002B75D0A34B9B6803F04C
:1012D4000C03042B0CD0A04B9B6803F00C03082BCD
:1012E40012D19D4B5B6803F48003B3F5800F0BD1DF
:1012F400994B1B6803F40033002B5BD07B685B685D
:10130400002B57D101233FE27B685B68B3F5803F34
:1013140006D1914B1B68904A43F4803313601DE05F
:101324007B685B68B3F5A02F0CD18B4B1B688A4A92
:1013340043F480231360884B1B68874A43F480334B
:1013440013600BE0844B1B68834A23F480331360DF
:10135400814B1B68804A23F4802313607B685B689D
:10136400002B13D0FFF7E6FC386108E0FFF7E2FC3E
:1013740002463B69D31A642B01D9032304E2764B5A
:101384001B6803F40033002BF0D014E0FFF7D2FC09
:10139400386108E0FFF7CEFC02463B69D31A642BA0
:1013A40001D90323F0E16C4B1B6803F40033002BD9
:1013B400F0D100E000BF7B681B6803F00203002B40
:1013C40063D0654B9B6803F00C03002B0BD0624B7E
:1013D4009B6803F00C03082B1CD15F4B5B6803F480
:1013E4008003002B16D15C4B1B6803F00203002B17
:1013F40005D07B68DB68012B01D00123C4E1564B87
:101404001B6823F0F8027B681B69DB005249134315
:101414000B603AE07B68DB68002B20D04F4B012245
:101424001A60FFF787FC386108E0FFF783FC024687
:101434003B69D31A022B01D90323A5E1464B1B6850
:1014440003F00203002BF0D0434B1B6823F0F80297
:101454007B681B69DB00404913430B6015E03F4B7D
:1014640000221A60FFF766FC386108E0FFF762FCAF
:1014740002463B69D31A022B01D9032384E1364B7C
:101484001B6803F00203002BF0D17B681B6803F098
:101494000803002B30D07B685B69002B16D0304BDF
:1014A40001221A60FFF746FC386108E0FFF742FCAE
:1014B40002463B69D31A022B01D9032364E1264B6C
:1014C4005B6F03F00203002BF0D015E0244B0022E5
:1014D4001A60FFF72FFC386108E0FFF72BFC024687
:1014E4003B69D31A022B01D903234DE11A4B5B6FDD
:1014F40003F00203002BF0D17B681B6803F00403A4
:10150400002B00F0A0800023FB75134B1B6C03F031
:101514008053002B0FD10023BB600F4B1B6C0E4A72
:1015240043F0805313640C4B1B6C03F08053BB607B
:10153400BB680123FB750B4B1B6803F48073002B02
:1015440021D1084B1B68074A43F480731360FFF7EB
:10155400F1FB386111E000BF00380240000047424F
:10156400800E474200700040FFF7E4FB02463B69EF
:10157400D31A022B01D9032306E1854B1B6803F41C
:101584008073002BF0D07B689B68012B06D1814BC4
:101594001B6F804A43F0010313671CE07B689B6860
:1015A400052B0CD17B4B1B6F7A4A43F00403136762
:1015B400784B1B6F774A43F0010313670BE0754BBD
:1015C4001B6F744A23F001031367724B1B6F714A3C
:1015D40023F0040313677B689B68002B15D0FFF787
:1015E400A9FB38610AE0FFF7A5FB02463B69D31A61
:1015F40041F28832934201D90323C5E0654B1B6F46
:1016040003F00203002BEED014E0FFF793FB3861E4
:101614000AE0FFF78FFB02463B69D31A41F2883296
:10162400934201D90323AFE05A4B1B6F03F002032B
:10163400002BEED1FB7D012B05D1564B1B6C554A7B
:1016440023F0805313647B689B69002B00F09B801C
:10165400504B9B6803F00C03082B5CD07B689B69A0
:10166400022B41D14C4B00221A60FFF763FB386117
:1016740008E0FFF75FFB02463B69D31A022B01D94E
:10168400032381E0434B1B6803F00073002BF0D16C
:101694007B68DA697B681B6A1A437B685B6A9B0117
:1016A4001A437B689B6A5B08013B1B041A437B68F3
:1016B400DB6A1B06374913434B60374B01221A6020
:1016C400FFF738FB386108E0FFF734FB02463B695B
:1016D400D31A022B01D9032356E02E4B1B6803F0C7
:1016E4000073002BF0D04EE02B4B00221A60FFF762
:1016F40021FB386108E0FFF71DFB02463B69D31A62
:10170400022B01D903233FE0224B1B6803F0007333
:10171400002BF0D137E07B689B69012B01D10123B9
:1017240032E01C4B5B68FB607B689B69012B28D013
:10173400FB6803F480027B68DB699A4221D1FB6871
:1017440003F03F027B681B6A9A421AD1FA6847F693
:10175400C07313407A68526A9201934211D1FB68B4
:1017640003F440327B689B6A5B08013B1B049A428A
:1017740007D1FB6803F070627B68DB6A1B069A4240
:1017840001D0012300E0002318461837BD4680BD70
:1017940000700040003802406000474280B584B0C9
:1017A40000AF786039607B68002B01D10123CCE065
:1017B400684B1B6803F007033A689A420CD9654BDF
:1017C4003A68D2B21A70634B1B6803F007033A6895
:1017D4009A4201D00123B8E07B681B6803F002033E
:1017E400002B20D07B681B6803F00403002B05D07A
:1017F400594B9B68584A43F4E05393607B681B68D9
:1018040003F00803002B05D0534B9B68524A43F462
:1018140060439360504B9B6823F0F0027B689B68A5
:101824004D4913438B607B681B6803F00103002B55
:1018340044D07B685B68012B07D1474B1B6803F4DA
:101844000033002B19D101237FE07B685B68022BF6
:1018540003D07B685B68032B07D13F4B1B6803F005
:101864000073002B09D101236FE03B4B1B6803F08D
:101874000203002B01D1012367E0374B9B6823F05F
:1018840003027B685B68344913438B60FFF752FAA9
:10189400F8600AE0FFF74EFA0246FB68D31A41F2F9
:1018A4008832934201D903234FE02B4B9B6803F00A
:1018B4000C027B685B689B009A42EBD1254B1B684A
:1018C40003F007033A689A420CD2224B3A68D2B228
:1018D4001A70204B1B6803F007033A689A4201D040
:1018E400012332E07B681B6803F00403002B08D05B
:1018F400194B9B6823F4E0527B68DB681649134359
:101904008B607B681B6803F00803002B09D0124B23
:101914009B6823F460427B681B69DB000E49134318
:101924008B6000F021F802460B4B9B681B0903F007
:101934000F030A49CB5C22FA03F3094A1360094BEB
:101944001B681846FFF7B2F9002318461037BD4646
:1019540080BD00BF003C024000380240E023000884
:101964000000002004000020B0B584B000AF0021C6
:1019740079600021F960002139600021B960524981
:10198400896801F00C0108290DD0082900F294801F
:10199400002902D0042903D08EE04C4BBB608EE0BA
:1019A4004B4BBB608BE04849496801F03F017960CB
:1019B4004549496801F48001002924D04249496815
:1019C400890908464FF0000140F2FF144FF000056A
:1019D40000EA040201EA05033D4901FB03F000218A
:1019E40001FB02F144183A49A2FB010163181946AC
:1019F4007B681A464FF00003FEF7EAFB02460B46EB
:101A04001346FB604AE0304B5B689B091A464FF073
:101A1400000340F2FF104FF0000102EA000403EA61
:101A24000105204629464FF000024FF000034B0108
:101A340043EAD063420110461946001B61EB0501DD
:101A44004FF000024FF000038B0143EA90638201E0
:101A5400121A63EB01034FF000004FF00001D900AC
:101A640041EA5271D00002460B46121945EB0303BA
:101A74004FF000004FF00001990241EA92519002A8
:101A840002460B46104619467B681A464FF000037F
:101A9400FEF79EFB02460B461346FB600A4B5B684F
:101AA4001B0C03F0030301335B003B60FA683B68E3
:101AB400B2FBF3F3BB6002E0044BBB6000BFBB6846
:101AC40018461037BD46B0BD003802400024F4006B
:101AD40040787D0180B582B000AF78607B68002BD0
:101AE40001D1012341E07B6893F83D30DBB2002B48
:101AF40006D17B68002283F83C207868FEF7E6FF75
:101B04007B68022283F83D207B681A687B68043373
:101B14001946104600F08EFA7B68012283F84620AD
:101B24007B68012283F83E207B68012283F83F20F2
:101B34007B68012283F840207B68012283F84120DE
:101B44007B68012283F842207B68012283F84320CA
:101B54007B68012283F844207B68012283F84520B6
:101B64007B68012283F83D20002318460837BD46D0
:101B740080BD000080B485B000AF78607B6893F8C6
:101B84003D30DBB2012B01D0012344E07B6802220B
:101B940083F83D207B681B68DA687B681B6842F029
:101BA4000102DA607B681B681E4A934218D07B6886
:101BB4001B68B3F1804F13D07B681B681A4A9342A9
:101BC4000ED07B681B68194A934209D07B681B6856
:101BD400174A934204D07B681B68164A934211D17A
:101BE4007B681B689B6803F00703FB60FB68062B9C
:101BF40010D07B681B681A687B681B6842F001027E
:101C04001A6007E07B681B681A687B681B6842F0EF
:101C140001021A60002318461437BD465DF8047BA0
:101C2400704700BF0000014000040040000800406D
:101C3400000C00400040014080B582B000AF7860E5
:101C44007B681B681B6903F00203022B22D17B68AB
:101C54001B68DB6803F00203022B1BD17B681B6843
:101C64006FF002021A617B6801221A777B681B6895
:101C74009B6903F00303002B03D0786800F0BCF9E0
:101C840005E0786800F0AEF9786800F0BFF97B6889
:101C940000221A777B681B681B6903F00403042B7A
:101CA40022D17B681B68DB6803F00403042B1BD17F
:101CB4007B681B686FF004021A617B6802221A7742
:101CC4007B681B689B6903F44073002B03D078681E
:101CD40000F092F905E0786800F084F9786800F083
:101CE40095F97B6800221A777B681B681B6903F0EF
:101CF4000803082B22D17B681B68DB6803F0080308
:101D0400082B1BD17B681B686FF008021A617B6883
:101D140004221A777B681B68DB6903F00303002B3A
:101D240003D0786800F068F905E0786800F05AF9A3
:101D3400786800F06BF97B6800221A777B681B686F
:101D44001B6903F01003102B22D17B681B68DB682E
:101D540003F01003102B1BD17B681B686FF010027B
:101D64001A617B6808221A777B681B68DB6903F4B5
:101D74004073002B03D0786800F03EF905E07868E2
:101D840000F030F9786800F041F97B6800221A7796
:101D94007B681B681B6903F00103012B0ED17B6870
:101DA4001B68DB6803F00103012B07D17B681B6808
:101DB4006FF001021A61786800F00AF97B681B6809
:101DC4001B6903F08003802B0ED17B681B68DB68E2
:101DD40003F08003802B07D17B681B686FF08002BF
:101DE4001A61786800F0B8FA7B681B681B6903F015
:101DF4004003402B0ED17B681B68DB6803F0400373
:101E0400402B07D17B681B686FF040021A61786829
:101E140000F006F97B681B681B6903F02003202B84
:101E24000ED17B681B68DB6803F02003202B07D1ED
:101E34007B681B686FF020021A61786800F082FAF0
:101E440000BF0837BD4680BD80B584B000AF786060
:101E540039607B6893F83C30012B01D10223B3E055
:101E64007B68012283F83C207B68022283F83D20B2
:101E74007B681B689B68FB60FB6823F07703FB604F
:101E8400FB6823F47F43FB607B681B68FA689A60F5
:101E94003B681B68B3F5005F3ED0B3F5005F00F20A
:101EA4008780B3F5805F00F08580B3F5805F7FD8CD
:101EB400702B1AD0702B7BD8602B50D0602B77D826
:101EC400502B3CD0502B73D8402B58D0402B6FD87C
:101ED400302B64D0302B6BD8202B60D0202B67D8CC
:101EE400002B5CD0102B5AD062E07B6818683B68EA
:101EF40099683B685A683B68DB6800F095F97B6831
:101F04001B689B68FB60FB6843F07703FB607B689E
:101F14001B68FA689A604EE07B6818683B689968A9
:101F24003B685A683B68DB6800F07EF97B681B6895
:101F34009A687B681B6842F480429A603BE07B6845
:101F440018683B6859683B68DB681A4600F0F2F889
:101F54007B681B685021184600F04BF92BE07B6826
:101F640018683B6859683B68DB681A4600F011F949
:101F74007B681B686021184600F03BF91BE07B6816
:101F840018683B6859683B68DB681A4600F0D2F869
:101F94007B681B684021184600F02BF90BE07B6836
:101FA4001A683B681B681946104600F022F902E0E3
:101FB40000BF00E000BF7B68012283F83D207B68FE
:101FC400002283F83C20002318461037BD4680BD0C
:101FD40080B483B000AF786000BF0C37BD465DF8B5
:101FE400047B704780B483B000AF786000BF0C37C7
:101FF400BD465DF8047B704780B483B000AF786061
:1020040000BF0C37BD465DF8047B704780B483B0D5
:1020140000AF786000BF0C37BD465DF8047B7047A5
:1020240080B483B000AF786000BF0C37BD465DF864
:10203400047B704780B485B000AF786039607B68FA
:102044001B68FB607B68344A93420FD07B68B3F112
:10205400804F0BD07B68314A934207D07B68304A6B
:10206400934203D07B682F4A934208D1FB6823F044
:102074007003FB603B685B68FA681343FB607B6832
:10208400254A93421BD07B68B3F1804F17D07B68FD
:10209400224A934213D07B68214A93420FD07B6833
:1020A400204A93420BD07B681F4A934207D07B6837
:1020B4001E4A934203D07B681D4A934208D1FB68B1
:1020C40023F44073FB603B68DB68FA681343FB60EE
:1020D400FB6823F080023B685B691343FB607B6809
:1020E400FA681A603B689A687B68DA623B681A6827
:1020F4007B689A627B68084A934203D13B681A69F9
:102104007B681A637B6801225A6100BF1437BD469D
:102114005DF8047B704700BF0000014000040040EC
:1021240000080040000C0040004001400044014011
:102134000048014080B487B000AFF860B9607A60AD
:10214400FB681B6A7B61FB681B6A23F00102FB6866
:102154001A62FB689B693B613B6923F0F0033B61B6
:102164007B681B013A6913433B617B6923F00A03D3
:102174007B617A69BB6813437B61FB683A699A6146
:10218400FB687A691A6200BF1C37BD465DF8047BA0
:10219400704780B487B000AFF860B9607A60FB68BC
:1021A4001B6A23F01002FB681A62FB689B697B615F
:1021B400FB681B6A3B617B6923F470437B617B682A
:1021C4001B037A6913437B613B6923F0A0033B61E2
:1021D400BB681B013A6913433B61FB687A699A61E6
:1021E400FB683A691A6200BF1C37BD465DF8047B80
:1021F400704780B485B000AF786039607B689B68B5
:10220400FB60FB6823F07003FB603A68FB681343D0
:1022140043F00703FB607B68FA689A6000BF1437D9
:10222400BD465DF8047B704780B487B000AFF860AA
:10223400B9607A603B60FB689B687B617B6923F4CF
:102244007F437B613B681A027B681A43BB68134374
:102254007A6913437B61FB687A699A6000BF1C3713
:10226400BD465DF8047B704780B485B000AF7860EC
:1022740039607B6893F83C30012B01D1022350E094
:102284007B68012283F83C207B68022283F83D208E
:102294007B681B685B68FB607B681B689B68BB6032
:1022A400FB6823F07003FB603B681B68FA68134308
:1022B400FB607B681B68FA685A607B681B681C4A71
:1022C400934218D07B681B68B3F1804F13D07B68AE
:1022D4001B68184A93420ED07B681B68164A9342C7
:1022E40009D07B681B68154A934204D07B681B683D
:1022F400134A93420CD1BB6823F08003BB603B6854
:102304005B68BA681343BB607B681B68BA689A60F1
:102314007B68012283F83D207B68002283F83C20FF
:10232400002318461437BD465DF8047B704700BF90
:10233400000001400004004000080040000C004080
:102344000040014080B483B000AF786000BF0C3718
:10235400BD465DF8047B704780B483B000AF7860FD
:1023640000BF0C37BD465DF8047B704770B50D4D5A
:102374000D4C641BA4100026A64209D10B4D0C4C35
:1023840000F020F8641BA4100026A64205D170BDFD
:1023940055F8043B98470136EEE755F8043B984757
:1023A4000136F2E7F8230008F8230008F8230008B0
:1023B400FC23000802440346934200D1704703F80B
:1023C400011BF9E7F8B500BFF8BC08BC9E4670478E
:0C23D400F8B500BFF8BC08BC9E4670477E
:1023E00000000000000000000102030406070809C5
:0823F00014DEFF7F0100000074
:0423F800B90100081F
:0423FC00950100083F
:0C2400000024F4001000000001000000A7
:0400000508000C19CA
:00000001FF
